:020000040800F2
:100000000000012029180008791800087918000854
:100010007918000879180008791800080000000015
:100020000000000000000000000000007918000837
:10003000791800080000000079180008BD150008B4
:1000400000000000791800087918000879180008E5
:100050007918000879180008650E0008850E000858
:10006000A50E0008C50E0008E50E00087918000866
:10007000791800087918000879180008791800081C
:1000800079180008791800087918000800000000A5
:10009000000000000000000000000000050F000844
:1000A00079180008791800087918000879180008EC
:1000B00079180008791800087918000879180008DC
:1000C0007918000879180008791800082115000827
:1000D0002F150008791800087918000800000000A2
:1000E000B90F00087918000879180008000000000E
:1000F0000000000000000000000000007918000867
:100100000000000079180008791800083D15000863
:1001100000000000000000000000000000000000DF
:10012000791800087918000879180008791800086B
:100130007918000800000000000000000000000026
:100140000000000000000000000000007918000816
:10015000791800087918000879180008791800083B
:10016000791800087918000800000000000000005D
:10017000000000000000000000000000000000007F
:10018000000000000000000000000000000000006F
:0401900079180008D2
:1001940010B5054C237833B9044B13B10448AFF3BD
:1001A40000800123237010BD240000200000000003
:1001B400F018000808B5034B1BB103490348AFF31B
:1001C400008008BD0000000028000020F01800088E
:1001D40070B54FF0FF0C4CF4E06C1CEA11541DBFD9
:1001E4001CEA135594EA0C0F95EA0C0F00F0DEF8A4
:1001F4002C4481EA030621EA4C5123EA4C5350EA89
:10020400013518BF52EA033541F4801143F48013D9
:1002140038D0A0FB02CE4FF00005E1FB02E506F06A
:100224000042E0FB03E54FF00006E1FB03569CF0BF
:10023400000F18BF4EF0010EA4F1FF04B6F5007FC5
:1002440064F5407404D25FEA4E0E6D4146EB060637
:1002540042EAC62141EA55514FEAC52040EA5E50C0
:100264004FEACE2EB4F1FD0C88BFBCF5E06F1ED86A
:10027400BEF1004F08BF5FEA500E50F1000041EBA1
:10028400045170BD06F0004646EA010140EA02004E
:1002940081EA0301B4EB5C04C2BFD4EB0C0541EA70
:1002A400045170BD41F480114FF0000E013C00F385
:1002B400AB8014F1360FDEBF002001F0004170BDA9
:1002C400C4F10004203C35DA0C341BDC04F11404C2
:1002D400C4F1200500FA05F320FA04F001FA05F24E
:1002E40040EA020001F0004221F0004110EBD3701B
:1002F40021FA04F642EB06015EEA430E08BF20EA47
:10030400D37070BDC4F10C04C4F1200500FA04F3E9
:1003140020FA05F001FA04F240EA020001F000417B
:1003240010EBD37041F100015EEA430E08BF20EAEE
:10033400D37070BDC4F1200500FA05F24EEA020E36
:1003440020FA04F301FA05F243EA020321FA04F065
:1003540001F0004121FA04F220EA020000EBD3701C
:100364005EEA430E08BF20EAD37070BD94F0000F1C
:100374000FD101F00046400041EB010111F4801F50
:1003840008BF013CF7D041EA060195F0000F18BF01
:10039400704703F00046520043EB030313F4801F3D
:1003A40008BF013DF7D043EA0603704794EA0C0FF7
:1003B4000CEA135518BF95EA0C0F0CD050EA41060D
:1003C40018BF52EA4306D1D181EA030101F000418A
:1003D4004FF0000070BD50EA410606BF10461946B2
:1003E40052EA430619D094EA0C0F02D150EA0136BE
:1003F40013D195EA0C0F05D152EA03361CBF1046FF
:1004040019460AD181EA030101F0004141F0FE419D
:1004140041F470014FF0000070BD41F0FE4141F421
:10042400780170BD81F0004102E000BF83F0004319
:1004340030B54FEA41044FEA430594EA050F08BF7B
:1004440090EA020F1FBF54EA000C55EA020C7FEA3F
:10045400645C7FEA655C00F0E2804FEA5454D4EBBC
:100464005555B8BF6D420CDD2C4480EA020281EA86
:10047400030382EA000083EA010180EA020281EABE
:100484000303362D88BF30BD11F0004F4FEA013110
:100494004FF4801C4CEA113102D0404261EB41011F
:1004A40013F0004F4FEA03334CEA133302D05242A5
:1004B40063EB430394EA050F00F0A780A4F1010461
:1004C400D5F1200E0DDB02FA0EFC22FA05F280189B
:1004D40041F1000103FA0EF2801843FA05F3594181
:1004E4000EE0A5F120050EF1200E012A03FA0EFC00
:1004F40028BF4CF0020C43FA05F3C01851EBE3712A
:1005040001F0004507D54FF0000EDCF1000C7EEB46
:1005140000006EEB0101B1F5801F1BD3B1F5001F84
:100524000CD349085FEA30004FEA3C0C04F10104A3
:100534004FEA445212F5800F80F09A80BCF1004FCC
:1005440008BF5FEA500C50F1000041EB045141EA4E
:10055400050130BD5FEA4C0C404141EB0101013C17
:1005640028BFB1F5801FE9D291F0000F04BF014606
:100574000020B1FA81F308BF2033A3F10B03B3F1D8
:1005840020020CDA0C3208DD02F1140CC2F10C0268
:1005940001FA0CF021FA02F10CE002F11402D8BFC6
:1005A400C2F1200C01FA02F120FA0CFCDCBF41EA92
:1005B4000C019040E41AA2BF01EB0451294330BD61
:1005C4006FEA04041F3C1CDA0C340EDC04F114043E
:1005D400C4F1200220FA04F001FA02F340EA030015
:1005E40021FA04F345EA030130BDC4F10C04C4F15B
:1005F400200220FA02F001FA04F340EA030029463B
:1006040030BD21FA04F0294630BD94F0000F83F484
:10061400801306BF81F480110134013D4EE77FEA67
:10062400645C18BF7FEA655C29D094EA050F08BFB3
:1006340090EA020F05D054EA000C04BF1946104694
:1006440030BD91EA030F1EBF0021002030BD5FEAD8
:10065400545C05D14000494128BF41F0004130BD00
:1006640014F580043CBF01F5801130BD01F0004554
:1006740045F0FE4141F470014FF0000030BD7FEAC7
:10068400645C1ABF194610467FEA655C1CBF0B46C2
:10069400024650EA013406BF52EA033591EA030FD9
:1006A40041F4002130BD00BF90F0000F04BF0021D1
:1006B400704730B54FF4806404F132044FF0000504
:1006C4004FF0000150E700BF90F0000F04BF00217D
:1006D400704730B54FF4806404F1320410F00045E3
:1006E40048BF40424FF000013EE700BF42004FEADE
:1006F400E2014FEA31014FEA02701FBF12F07F435B
:1007040093F07F4F81F06051704732F07F4208BF11
:10071400704793F07F4F04BF41F40021704730B518
:100724004FF4607401F0004521F000411CE700BF64
:1007340050EA010208BF704730B54FF000050AE0E7
:1007440050EA010208BF704730B511F0004502D5E8
:10075400404261EB41014FF4806404F132045FEAEA
:10076400915C3FF4D8AE4FF003025FEADC0C18BF93
:1007740003325FEADC0C18BF033202EBDC02C2F185
:10078400200300FA03FC20FA02F001FA03FE40EA17
:100794000E0021FA02F11444BDE600BF4A0011D252
:1007A40012F5001211D20DD56FF47873B3EB6252C7
:1007B4000ED44FEAC12343F0004343EA505323FAD3
:1007C40002F070474FF00000704750EA013002D148
:1007D4004FF0FF3070474FF00000704780B400AF17
:1007E400034B01221A7000BFBD465DF8047B7047BD
:1007F4004000002080B584B000AF78600023FB7314
:100804000023FB7315E07B689B691B881AB2FB7B92
:100814007968CB5C194601238B401BB2DB431BB2C6
:1008240013401AB27B689B6992B21A80FB7B013336
:10083400FB73FB7B072BE6D97B689B69184600F0AA
:100844009BFA00BF1037BD4680BD80B584B000AFB1
:1008540078600023FB730023FB7314E07B689B69BF
:100864001B881AB2FB7B79680B441B7A1946012357
:100874008B401BB213431AB27B689B6992B21A80F5
:10088400FB7B0133FB73FB7B072BE7D97B689B69FD
:10089400184600F071FA00BF1037BD4680BD000055
:1008A40080B584B000AF786039600023FB73002307
:1008B400BB7301237B737868FFF79CFF4C4938684E
:1008C40000F090FE87E00023FB7380E07868FFF778
:1008D400BCFF7B689B691B881AB2FB7B7968CB5C85
:1008E400194601238B401BB213431AB27B689B69E0
:1008F40092B21A807B689B69184600F03DFA002387
:10090400BB7346E0FB7B7A6813441B7C1A46BB7BB3
:1009140042FA03F303F00103002B0CBF012300236D
:10092400DBB27B737B7B012B12D17B689B691B88B9
:100934001AB2BB7B79680B441B7A194601238B409E
:100944001BB213431AB27B689B6992B21A8016E0F9
:100954007B7B002B13D17B689B691B881AB2BB7B02
:1009640079680B441B7A194601238B401BB2DB4385
:100974001BB213401AB27B689B6992B21A807B68DF
:100984009B69184600F0F8F900F066F8BB7B013368
:10099400BB73BB7B072BB5D97B689B691B881AB2D9
:1009A400FB7B7968CB5C194601238B401BB2DB438C
:1009B4001BB213401AB27B689B6992B21A807B689F
:1009C4009B69184600F0D8F9FB7B0133FB73FB7B72
:1009D400072B7FF67BAF074B1B78002B3FF473AFDD
:1009E400044B00221A7000BF1037BD4680BD00BF03
:1009F400E10700084000002080B582B000AF7860B5
:100A04007B68103308220021184600F034FF00BF31
:100A14000837BD4680BD80B485B000AF7860002340
:100A2400FB730023FB730DE0FB7B7A6813441A7C91
:100A3400FB7B5208D1B27A6813440A461A74FB7BD2
:100A44000133FB73FB7B072BEED900BF00BF1437C8
:100A5400BD465DF8047B704780B483B000AF0023CB
:100A6400FB710023FB7102E0FB790133FB71FB791D
:100A7400002BF9D000BF00BF0C37BD465DF8047BE6
:100A8400704780B582B000AF78607B689B69184678
:100A940000F052F900BF0837BD4680BD80B586B06E
:100AA40000AFF860B9607A600023FB750023BB7562
:100AB40001237B75F868FFF79DFEFB68103308225D
:100AC400B968184600F004FF4C49786800F08AFDC4
:100AD40087E00023FB7580E0F868FFF7B6FEFB684B
:100AE4009B691B881AB2FB7DF968CB5C194601230C
:100AF4008B401BB213431AB2FB689B6992B21A80F3
:100B0400FB689B69184600F037F90023BB7546E083
:100B1400FB7DFA6813441B7C1A46BB7D42FA03F33F
:100B240003F00103002B0CBF01230023DBB27B7510
:100B34007B7D012B12D1FB689B691B881AB2BB7D9C
:100B4400F9680B441B7A194601238B401BB21343EB
:100B54001AB2FB689B6992B21A8016E07B7D002B67
:100B640013D1FB689B691B881AB2BB7DF9680B44DF
:100B74001B7A194601238B401BB2DB431BB2134083
:100B84001AB2FB689B6992B21A80FB689B6918468B
:100B940000F0F2F8FFF760FFBB7D0133BB75BB7D4E
:100BA400072BB5D9FB689B691B881AB2FB7DF968D2
:100BB400CB5C194601238B401BB2DB431BB21340B1
:100BC4001AB2FB689B6992B21A80FB689B6918464B
:100BD40000F0D2F8FB7D0133FB75FB7D072B7FF61C
:100BE4007BAF074B1B78002B3FF473AF044B002201
:100BF4001A7000BF1837BD4680BD00BFE10700086A
:100C04004000002080B586B000AFF860B9607A601B
:100C14000023FB750023BB75F868FFF7EDFE38E091
:100C24000023FB752FE00023BB751FE0BB7DFA6832
:100C340013441B7C5AB2BB681B78A3F12001BB7D13
:100C44002048C90001440B441B781946FB7D41FA36
:100C540003F3DB015BB213435AB2BB7DD1B2FA6832
:100C640013440A461A74BB7D0133BB75BB7D072B45
:100C7400DCD97968F868FFF713FEF868FFF7CBFE54
:100C8400FB7D0133FB75FB7D072BCCD9BB6801339E
:100C9400BB60BB681B78002BC2D10023FB7509E045
:100CA400F868FFF7B8FE7968F868FFF7F9FDFB7D8F
:100CB4000133FB75FB7D072BF2D900BF00BF18374A
:100CC400BD4680BD1019000880B582B000AF034650
:100CD4000A46FB711346BB71FB79022B10D0022B21
:100CE40013DC002B02D0012B05D00EE000210020E4
:100CF40000F0B0FB0AE00121002000F0ABFB05E0AE
:100D04000221002000F0A6FB00E000BFB979FB79C6
:100D14000122184600F0BAF9B979FB790022184685
:100D240000F00EFAB979FB790022184600F05AFA5D
:100D340000BF0837BD4680BD80B582B000AF786083
:100D44007B689A787B68DB7819461046FFF7BCFF0E
:100D54007B689A797B68DB7919461046FFF7B4FF04
:100D64007B681A797B685B7919461046FFF7ACFFFC
:100D740000BF0837BD4680BD80B584B000AF786041
:100D84000023FB730023FB7325E07B6898787B6862
:100D9400D9787B681B881A46FB7BC3F10F0342FAA0
:100DA40003F3DBB203F00103DBB21A4600F074FA7A
:100DB4007B6818797B685B790122194600F06CFA2C
:100DC4007B6818797B685B790022194600F064FA25
:100DD400FB7B0133FB73FB7B0F2BD6D97B689879A4
:100DE4007B68DB790122194600F056FA7B68987912
:100DF4007B68DB790022194600F04EFA00BF1037F9
:100E0400BD4680BD80B483B000AF0346FB71084B80
:100E14005B69FA79012101FA02F21146044A0B4393
:100E2400536100BF0C37BD465DF8047B704700BFBB
:100E3400003C014080B483B000AF0346FB71074B14
:100E44005A69FB7922FA03F3DBB203F00103DBB244
:100E540018460C37BD465DF8047B7047003C0140E2
:100E640080B500AF054B1B68002B02D0034B1B68F9
:100E740098470020FFF7C6FF00BF80BD4400002054
:100E840080B500AF054B5B68002B02D0034B5B6859
:100E940098470120FFF7B6FF00BF80BD4400002043
:100EA40080B500AF054B9B68002B02D0034B9B68B9
:100EB40098470220FFF7A6FF00BF80BD4400002032
:100EC40080B500AF054BDB68002B02D0034BDB6819
:100ED40098470320FFF796FF00BF80BD4400002021
:100EE40080B500AF054B1B69002B02D0034B1B6977
:100EF40098470420FFF786FF00BF80BD4400002010
:100F040080B500AF0520FFF795FF0346002B0AD0FC
:100F1400274B5B69002B02D0254B5B699847052062
:100F2400FFF770FF42E00620FFF784FF0346002B23
:100F34000AD01F4B9B69002B02D01D4B9B6998471D
:100F44000620FFF75FFF31E00720FFF773FF03463A
:100F5400002B0AD0164BDB69002B02D0144BDB6943
:100F640098470720FFF74EFF20E00820FFF762FFB5
:100F74000346002B0AD00E4B1B6A002B02D00C4BED
:100F84001B6A98470820FFF73DFF0FE00920FFF791
:100F940051FF0346002B09D0054B5B6A002B02D09E
:100FA400034B5B6A98470920FFF72CFF00BF80BD05
:100FB4004400002080B500AF0A20FFF73BFF034642
:100FC400002B0AD0304B9B6A002B02D02E4B9B6A1D
:100FD40098470A20FFF716FF53E00B20FFF72AFF7C
:100FE4000346002B0AD0284BDB6A002B02D0264B89
:100FF400DB6A98470B20FFF705FF42E00C20FFF760
:1010040019FF0346002B0AD01F4B1B6B002B02D089
:101014001D4B1B6B98470C20FFF7F4FE31E00D20AD
:10102400FFF708FF0346002B0AD0174B5B6B002B1E
:1010340002D0154B5B6B98470D20FFF7E3FE20E0D1
:101044000E20FFF7F7FE0346002B0AD00E4B9B6BD6
:10105400002B02D00C4B9B6B98470E20FFF7D2FE5F
:101064000FE00F20FFF7E6FE0346002B09D0064BE6
:10107400DB6B002B02D0044BDB6B98470F20FFF790
:10108400C1FE00BF80BD00BF4400002080B483B017
:1010940000AF0346FB710B46BB7113467B71FB79B2
:1010A400022B2CD0022B3DDC002B02D0012B13D0C1
:1010B40038E0204B1B68BA795200032101FA02F28E
:1010C400D24313407979BA79520001FA02F21146F7
:1010D400184A0B43136026E0174B1B68BA79520079
:1010E400032101FA02F2D24313407979BA7952000A
:1010F40001FA02F21146104A0B43136013E00F4B3E
:101104001B68BA795200032101FA02F2D243134058
:101114007979BA79520001FA02F21146074A0B436F
:10112400136000E000BF00BF0C37BD465DF8047BD0
:10113400704700BF00000240000402400008024063
:1011440080B483B000AF0346FB710B46BB711346FA
:101154007B71FB79022B28D0022B37DC002B02D0C9
:10116400012B11D032E01D4B1B68BA79012101FA21
:1011740002F2D24313407979BA7901FA02F21146A4
:10118400164A0B43136022E0144B1B68BA79012101
:1011940001FA02F2D24313407979BA7901FA02F2E0
:1011A40011460E4A0B43136011E00D4B1B68BA79CC
:1011B400012101FA02F2D24313407979BA7901FA92
:1011C40002F21146064A0B43136000E000BF00BF61
:1011D4000C37BD465DF8047B704700BF0404024031
:1011E4000408024080B483B000AF0346FB710B4691
:1011F400BB7113467B71FB79022B2CD0022B3DDC97
:10120400002B02D0012B13D038E0204B1B68BA7995
:101214005200032101FA02F2D24313407979BA79D8
:10122400520001FA02F21146184A0B43136026E0F9
:10123400174B1B68BA795200032101FA02F2D24318
:1012440013407979BA79520001FA02F21146104A30
:101254000B43136013E00F4B1B68BA795200032150
:1012640001FA02F2D24313407979BA79520001FAB1
:1012740002F21146074A0B43136000E000BF00BFAF
:101284000C37BD465DF8047B704700BF0800024080
:10129400080402400808024080B483B000AF03464B
:1012A400FB710B46BB7113467B71FB79022B2CD06F
:1012B400022B3DDC002B02D0012B13D038E07B79CC
:1012C400012B05D1BB7901229A40204B1A6031E0F1
:1012D4007B79002B2ED1BB794FF480329A401B4B83
:1012E4001A6027E07B79012B05D1BB7901229A4052
:1012F400174B1A6020E07B79002B1DD1BB794FF48A
:1013040080329A40124B1A6016E07B79012B05D18A
:10131400BB7901229A400F4B1A600FE07B79002BB6
:101324000CD1BB794FF480329A400A4B1A6005E025
:1013340000BF04E000BF02E000BF00E000BF00BF48
:101344000C37BD465DF8047B704700BF18000240AF
:10135400180402401808024080B500AF00F0BAF843
:1013640000BF80BD80B400AF144B1B68134A43F028
:1013740001031360114B1B68104A23F4803313607C
:101384000E4B1B680D4A23F08073136000BF0B4B98
:101394001B6803F00203002BF9D0094B1B68084AB1
:1013A40023F001031360064B1B68054A23F0020374
:1013B400136000BFBD465DF8047B704700380240EF
:1013C4000838024080B400AF074B1B68064A23F07C
:1013D400F0031360044B044A1B68136000BFBD464E
:1013E4005DF8047B704700BF0838024080B400AF4A
:1013F400074B1B68064A23F4E0531360044B044A6A
:101404001B68136000BFBD465DF8047B704700BFD6
:101414000838024080B400AF074B1B68064A23F427
:1014240060431360044B044A1B68136000BFBD464D
:101434005DF8047B704700BF0838024080B500AFF8
:10144400FFF790FFFFF7BEFFFFF7D0FFFFF7E2FFC4
:1014540000BF80BD80B483B000AF03460A46FB7171
:101464001346BB71FB79022B1CD0022B25DC002B0D
:1014740002D0012B0BD020E0134B1B68BA79012159
:1014840001FA02F21146104A0B43136016E00F4BA7
:101494001B68BA79012101FA02F211460B4A0B4387
:1014A40013600BE00A4B1B68BA79012101FA02F2BE
:1014B4001146074A0B43136000E000BF00BF0C371E
:1014C400BD465DF8047B7047303802404038024026
:1014D4004438024080B483B000AF00237B6005230E
:1014E4003B600D4BDB687B607A684FF6FF0313406B
:1014F4007B603B681A027B68134343F0BF6343F489
:1015040000337B60044A7B68D36000BF0C37BD4660
:101514005DF8047B704700BF00ED00E080B400AFCD
:1015240000BFBD465DF8047B704780B400AF00BFC8
:10153400BD465DF8047B704780B400AF00BFBD4674
:101544005DF8047B7047000080B400AF0B4B1B6850
:101554000A4A23F004031360084B1B68074A23F06C
:1015640002031360054B1B68044A43F00103136034
:1015740000BFBD465DF8047B704700BF10E000E08B
:1015840080B400AF0B4B1B680A4A23F001031360BD
:10159400084B00225A60074B00229A60054B1B68D7
:1015A400044A23F00203136000BFBD465DF8047BC8
:1015B400704700BF10E000E080B500AF074B1B7818
:1015C400DBB2002B01D1FFF7DBFF054B1B68002BBF
:1015D40002D0034B1B68984700BF80BD88000020E1
:1015E4008400002080B584B000AF786039600023A7
:1015F400FB603B68002B2ED07868FFF755F84FF05E
:101604000002174BFEF7E4FD02460B46104619464E
:10161400FFF7C4F80346FB60FB68B3F1807F02D395
:101624006FF07F43FB600F4AFB6853600D4B002251
:101634009A600D4A3B6813600C4B00221A70094BE8
:101644001B68084A43F002031360064B1B68054AF3
:1016540043F00103136000BF1037BD4680BD00BFD7
:1016640000409F4010E000E084000020880000203B
:1016740080B500AF0248FFF704FA00BF80BD00BF89
:101684000000002080B500AFB42203490348FFF7EF
:10169400B9FA00BF80BD00BF08190008000000208F
:1016A40080B582B000AF0023FB710023FB7116E00C
:1016B400C8220F490F48FFF7F1F9C8220E490D4817
:1016C400FFF7ECF9C8220D490A48FFF7E7F9C822E9
:1016D40009490848FFF7E2F9FB790133FB71FB790B
:1016E400062BE5D900BF00BF0837BD4680BD00BF4B
:1016F400081C000800000020101C0008181C00082A
:1017040080B582B000AF0023FB710023FB710EE0B3
:101714004FF4C8720A490B48FFF7C0F94FF4C87276
:1017240009490848FFF7BAF9FB790133FB71FB79E2
:10173400062BEDD900BF00BF0837BD4680BD00BFF2
:10174400201C000800000020281C000880B582B07E
:1017540000AF0023FB710023FB7134E0C8221E4953
:101764001E48FFF79BF9C8221D491C48FFF796F94C
:10177400C8221C491948FFF791F9C8221A49174889
:10178400FFF78CF9C82219491448FFF787F9C822D2
:1017940017491248FFF782F9C82214490F48FFF786
:1017A4007DF9C82210490D48FFF778F9C8220D4980
:1017B4000A48FFF773F9C82209490848FFF76EF988
:1017C400FB790133FB71FB79022BC7D900BF00BF42
:1017D4000837BD4680BD00BF301C00080000002053
:1017E400381C0008401C0008481C0008501C000855
:1017F400581C000880B500AFFFF73AFFFFF742FF1F
:10180400FFF74EFFFFF77CFFFFF7A0FFF8E780B577
:1018140000AFFFF713FEFFF797FEFFF79DFD00BF34
:1018240080BD00000D488546FFF7F1FF0C480D49C7
:101834000D4A002302E0D458C4500433C4188C4227
:10184400F9D30A4A0A4C002301E013600432A2428D
:10185400FBD300F019F8FFF7CDFFFEE700000120ED
:101864000000002024000020681C00082400002040
:101874008C000020FEE702440346934200D17047E7
:1018840003F8011BF9E7000070B50D4D0D4C641B06
:10189400A4100026A64209D10B4D0C4C00F026F8EA
:1018A400641BA4100026A64205D170BD55F8043B64
:1018B40098470136EEE755F8043B98470136F2E7BE
:1018C400601C0008601C0008601C0008641C000800
:1018D4000A44914200F1FF3300D1704710B511F86A
:1018E400014B03F8014F9142F9D110BDF8B500BF87
:1018F400F8BC08BC9E467047F8B500BFF8BC08BCED
:041904009E46704744
:101908005A4133424F4C41000000000000000000E3
:1019180001010101010001000505050000000000AA
:10192800000A1F0A0A1F0A00041E050E140F0400ED
:101938001313080402191900040A040215091600F1
:10194800010100000000000004020101010204007E
:10195800010204040402010000150E1F0E15000008
:101968000004041F04040000000000000006060331
:101978000000001F0000000000000000000303003A
:1019880010100804020101003C4242424242423C1B
:1019980010181412101010107E40407E0202027EB1
:1019A8007C40407C40407C00101814127F101010BE
:1019B8003C04043C20203C003C04043C24243C001F
:1019C8007C44201010101010007C44447C44447C5B
:1019D8007C44447C4040407C000303000003030037
:1019E80000060600000606030804020102040800B7
:1019F80000000F000F0000000102040804020100AB
:101A08000E110804040004000E111D15150902002A
:101A18001028447C444444443C44447C44443C00B2
:101A28003C02020202023C003E42424242423E0066
:101A38003E02023E0202023E3E02023E0202020252
:101A48003C0202020222223C2222223E222222229E
:101A58003E0808080808083E3C1010101010120C28
:101A68000024140C040C1424020202020202023E96
:101A780081C3A599818181810042464A5262420010
:101A88003C4242424242423C3C4444443C040404FA
:101A980038444444446444B83C4444443C24448466
:101AA800007804047C40403C007C1010101010109A
:101AB800424242424242443842424242424224184E
:101AC800009292929254380000824428102844824E
:101AD800824428101010101000FE4020100804FE48
:101AE80007010101010107000101020408101000AB
:101AF8000704040404040700040A1100000000009D
:101B08000000000000001F000102040000000000A7
:101B180000000F101E19160001010F1111130D00FE
:101B280000000E0101010E0010101E1111191600FF
:101B380000000E111F010E000C020F02020202002B
:101B480000001E11111E100F0101070909090900E3
:101B5800020003020202070004000604040404034E
:101B68000101090503050900030202020202070038
:101B78000000172A2A2A2A0000000B161212120047
:101B880000000E1111110E0000000F12120E0207B4
:101B980000001E09090E081C00000B1602020700AF
:101BA80000000E01060807000207020202020400F4
:101BB8000000090909091E00000011110A0A0400A1
:101BC80000001111150A0A00000009090609090098
:101BD80000000909090E080700001F0804021F0079
:101BE80004020201020204000101010101010100D5
:101BF80001020204020201000000000215080000B0
:101C0800040E040E0D042E11040E040E0D240E09EC
:101C1800040E040E2D040E09000404040E040A0028
:101C280004000004040E040A040E040E0D042E1110
:101C3800040E040E0D440E09040E040E8D040E0944
:101C4800040E044E0D040E09040E240E0D040E0994
:081C5800081C040E0D040E0926
:041C6000B9010008BE
:041C640095010008DE
:101C6800000102030405060708090A0B0C0D0E0FF4
:101C780000000000000000001C000020000001041B
:041C8800010501064B
:0400000508001829AE
:00000001FF
