:020000040800F2
:1000000000000120B10E0008010F0008010F0008D8
:10001000010F0008010F0008010F00080000000098
:10002000000000000000000000000000010F0008B8
:10003000010F000800000000010F0008F90D000882
:1000400000000000010F0008010F0008010F000868
:10005000010F0008010F0008D9050008F905000884
:10006000190600083906000859060008010F0008A3
:10007000010F0008010F0008010F0008010F000820
:10008000010F0008010F0008010F00080000000028
:1000900000000000000000000000000079060008D9
:1000A000010F0008010F0008010F0008010F0008F0
:1000B000010F0008010F0008010F0008010F0008E0
:1000C000010F0008010F0008010F0008010F0008D0
:1000D000010F0008010F0008010F000800000000D8
:1000E0002D070008010F0008010F000800000000A4
:1000F000000000000000000000000000010F0008E8
:1001000000000000010F0008010F0008010F0008A7
:1001100000000000000000000000000000000000DF
:10012000010F0008010F0008010F0008010F00086F
:10013000010F0008000000000000000000000000A7
:10014000000000000000000000000000010F000897
:10015000010F0008010F0008010F0008010F00083F
:10016000010F0008010F000800000000000000005F
:10017000000000000000000000000000000000007F
:10018000000000000000000000000000000000006F
:04019000010F000853
:1001940010B5054C237833B9044B13B10448AFF3BD
:1001A40000800123237010BD140000200000000013
:1001B4004C0F000808B5034B1BB103490348AFF3C8
:1001C400008008BD00000000180000204C0F00084B
:1001D40080B582B000AF78607B685B78022B10D06A
:1001E400022B13DC002B02D0012B05D00EE00021E2
:1001F400002000F063FD0AE00121002000F05EFD14
:1002040005E00221002000F059FD00E000BF7B68FA
:1002140058787B681B780022194600F0F1FA7B6855
:10022400DB78002B08D17B6858787B681B78022226
:10023400194600F04BFC0BE07B68DB78012B07D1FF
:100244007B6858787B681B780122194600F03EFCD5
:1002540000BF0837BD4680BD80B582B000AF78606E
:100264007B685B78022B10D0022B13DC002B02D0AE
:10027400012B05D00EE00021002000F01FFD0AE054
:100284000121002000F01AFD05E00221002000F009
:1002940015FD00E000BF7B6858787B681B7801225D
:1002A400194600F0ADFA7B6858787B681B78002209
:1002B400194600F0FFFA7B6858787B681B780022A7
:1002C400194600F049FB7B6858787B6819787B688D
:1002D4009B781A4600F09AFB00BF0837BD4680BDE4
:1002E40080B582B000AF78607B6858787B681B78F3
:1002F4000122194600F08AFB7B6801229A7000BF34
:100304000837BD4680BD80B582B000AF78607B6899
:1003140058787B681B780022194600F077FB7B68CD
:1003240000229A7000BF0837BD4680BD80B582B0F8
:1003340000AF78607B689B78012B03D17868FFF766
:10034400E2FF06E07B689B78002B02D17868FFF718
:10035400C7FF00BF0837BD4680BD000080B582B02E
:1003640000AF786039607B68DB78002B02D0012B0A
:100374000CD017E07A4B1B687A6852781146012238
:100384008A401146764A0B4313600BE0744B5B685A
:100394007A685278114601228A401146704A0B430A
:1003A400536000BF7B685B7819466E4A3B6842F82D
:1003B40021307B689B78022B36D0022B4BDC002B40
:1003C40002D0012B18D046E0654B9B687A685278BE
:1003D400114601228A401146614A0B439360604BE7
:1003E400DB687A685278114601228A40D24311466A
:1003F4005B4A0B40D3602FE0594BDB687A68527834
:10040400114601228A401146554A0B43D360544B8E
:100414009B687A685278114601228A40D243114679
:100424004F4A0B40936017E04D4B9B687A685278B3
:10043400114601228A401146494A0B439360484BB6
:10044400DB687A685278114601228A401146444A90
:100454000B43D36000E000BF0E21022000F02EFC0D
:100464007B685B78032B0ED83F4B1B687A68127845
:1004740011467A685278920001FA02F211463A4A19
:100484000B43136043E07B685B78072B12D87B68CF
:100494005B78032B0ED9354B1B687A6812781146AA
:1004A4007A685278920001FA02F211462F4A0B43FD
:1004B40013602CE07B685B780B2B12D87B685B782D
:1004C400072B0ED92A4B1B687A68127811467A6872
:1004D4005278920001FA02F21146254A0B43136046
:1004E40015E07B685B780F2B11D87B685B780B2B4E
:1004F4000DD9204B1B687A68127811467A685278B5
:10050400920001FA02F211461A4A0B4313607B6807
:100514005B78042B08D87B685B780633DBB25BB26C
:10052400184600F033FB16E07B685B78042B07D990
:100534007B685B78092B03D8172000F027FB0AE0BF
:100544007B685B78092B06D97B685B780F2B02D814
:10055400282000F01BFB00BF0837BD4680BD00BF4C
:10056400003C014034000020083801400C380140B0
:10057400103801401438014080B483B000AF034602
:10058400FB71084B5B69FA79012101FA02F2114609
:10059400044A0B43536100BF0C37BD465DF8047B2E
:1005A400704700BF003C014080B483B000AF0346F5
:1005B400FB71074B5A69FB7922FA03F3DBB203F0B0
:1005C4000103DBB218460C37BD465DF8047B704767
:1005D400003C014080B500AF0020FFF7CDFF044B85
:1005E4001B68002B02D0024B1B68984700BF80BDDC
:1005F4003400002080B500AF0120FFF7BDFF044B9D
:100604005B68002B02D0024B5B68984700BF80BD3B
:100614003400002080B500AF0220FFF7ADFF044B8B
:100624009B68002B02D0024B9B68984700BF80BD9B
:100634003400002080B500AF0320FFF79DFF044B7A
:10064400DB68002B02D0024BDB68984700BF80BDFB
:100654003400002080B500AF0420FFF78DFF044B69
:100664001B69002B02D0024B1B69984700BF80BD59
:100674003400002080B500AF0520FFF795FF034646
:10068400002B0AD00520FFF777FF264B5B69002B70
:1006940046D0244B5B69984742E00620FFF784FF6D
:1006A4000346002B0AD00620FFF766FF1D4B9B690B
:1006B400002B35D01B4B9B69984731E00720FFF78F
:1006C40073FF0346002B0AD00720FFF755FF154B95
:1006D400DB69002B24D0134BDB69984720E008200A
:1006E400FFF762FF0346002B0AD00820FFF744FF00
:1006F4000C4B1B6A002B13D00A4B1B6A98470FE064
:100704000920FFF751FF0346002B09D00920FFF70A
:1007140033FF044B5B6A002B02D0024B5B6A9847A1
:1007240000BF80BD3400002080B500AF0A20FFF771
:100734003BFF0346002B0AD00A20FFF71DFF2F4B77
:100744009B6A002B57D02D4B9B6A984753E00B2094
:10075400FFF72AFF0346002B0AD00B20FFF70CFFFC
:10076400264BDB6A002B46D0244BDB6A984742E0D9
:100774000C20FFF719FF0346002B0AD00C20FFF7CB
:10078400FBFE1E4B1B6B002B35D01C4B1B6B984781
:1007940031E00D20FFF708FF0346002B0AD00D209F
:1007A400FFF7EAFE154B5B6B002B24D0134B5B6BFE
:1007B400984720E00E20FFF7F7FE0346002B0AD0EF
:1007C4000E20FFF7D9FE0D4B9B6B002B13D00B4B68
:1007D4009B6B98470FE00F20FFF7E6FE0346002BC4
:1007E40009D00F20FFF7C8FE044BDB6B002B02D0AF
:1007F400024BDB6B984700BF80BD00BF3400002074
:1008040080B483B000AF0346FB710B46BB71134643
:100814007B71FB79022B2CD0022B3DDC002B02D008
:10082400012B13D038E0204B1B68BA795200032106
:1008340001FA02F2D24313407979BA79520001FAEB
:1008440002F21146184A0B43136026E0174B1B684B
:10085400BA795200032101FA02F2D24313407979A2
:10086400BA79520001FA02F21146104A0B4313609E
:1008740013E00F4B1B68BA795200032101FA02F20C
:10088400D24313407979BA79520001FA02F211463F
:10089400074A0B43136000E000BF00BF0C37BD469E
:1008A4005DF8047B704700BF000002400004024072
:1008B4000008024080B483B000AF0346FB710B46CE
:1008C400BB7113467B71FB79022B28D0022B37DCDA
:1008D400002B02D0012B11D032E01D4B1B68BA79DA
:1008E400012101FA02F2D24313407979BA7901FA6B
:1008F40002F21146164A0B43136022E0144B1B68A4
:10090400BA79012101FA02F2D24313407979BA7912
:1009140001FA02F211460E4A0B43136011E00D4B2B
:100924001B68BA79012101FA02F2D24313407979A2
:10093400BA7901FA02F21146064A0B43136000E049
:1009440000BF00BF0C37BD465DF8047B704700BF95
:10095400040402400408024080B483B000AF03469C
:10096400FB710B46BB7113467B71FB79022B2CD0B8
:10097400022B3DDC002B02D0012B13D038E0204B9E
:100984001B68BA795200032101FA02F2D2431340E0
:100994007979BA79520001FA02F21146184A0B43E6
:1009A400136026E0174B1B68BA795200032101FA41
:1009B40002F2D24313407979BA79520001FA02F271
:1009C4001146104A0B43136013E00F4B1B68BA79AE
:1009D4005200032101FA02F2D24313407979BA7921
:1009E400520001FA02F21146074A0B43136000E079
:1009F40000BF00BF0C37BD465DF8047B704700BFE5
:100A040008000240080402400808024080B483B091
:100A140000AF0346FB710B46BB7113467B71FB7938
:100A2400022B2CD0022B3DDC002B02D0012B13D047
:100A340038E07B79012B05D1BB7901229A40204B08
:100A44001A6031E07B79002B2ED1BB794FF48032D0
:100A54009A401B4B1A6027E07B79012B05D1BB79A7
:100A640001229A40174B1A6020E07B79002B1DD19C
:100A7400BB794FF480329A40124B1A6016E07B79AE
:100A8400012B05D1BB7901229A400F4B1A600FE06C
:100A94007B79002B0CD1BB794FF480329A400A4BFE
:100AA4001A6005E000BF04E000BF02E000BF00E000
:100AB40000BF00BF0C37BD465DF8047B704700BF24
:100AC40018000240180402401808024080B483B0A1
:100AD40000AF0346FB710B46BB7113467B71FB7978
:100AE400022B2CD0022B3DDC002B02D0012B13D087
:100AF40038E0204B1B68BA795200032101FA02F254
:100B0400D24313407979BA79520001FA02F21146BC
:100B1400184A0B43136026E0174B1B68BA7952003E
:100B2400032101FA02F2D24313407979BA795200CF
:100B340001FA02F21146104A0B43136013E00F4B03
:100B44001B68BA795200032101FA02F2D24313401E
:100B54007979BA79520001FA02F21146074A0B4335
:100B6400136000E000BF00BF0C37BD465DF8047B96
:100B7400704700BF0C0002400C0402400C08024005
:100B840080B500AF00F0DAF800BF80BD80B483B058
:100B940000AF0346FB7197F90730002B0BDBFB79A1
:100BA40003F01F02074997F907305B09012000FA97
:100BB40002F241F8232000BF0C37BD465DF8047BE8
:100BC400704700BF00E100E080B400AF144B1B6825
:100BD400134A43F001031360114B1B68104A23F4BA
:100BE400803313600E4B1B680D4A23F0807313602F
:100BF40000BF0B4B1B6803F00203002BF9D0094B19
:100C04001B68084A23F001031360064B1B68054A5E
:100C140023F00203136000BFBD465DF8047B7047F8
:100C2400003802400838024080B400AF084B1B680B
:100C3400074A23F0F0031360054B1B68044A43F092
:100C44008003136000BFBD465DF8047B704700BF9E
:100C54000838024080B400AF074B1B68064A23F4EF
:100C6400E0531360044B044A1B68136000BFBD4685
:100C74005DF8047B704700BF0838024080B400AFC1
:100C8400074B1B68064A23F460431360044B044A71
:100C94001B68136000BFBD465DF8047B704700BF4E
:100CA4000838024080B500AFFFF78EFFFFF7BCFFA6
:100CB400FFF7D0FFFFF7E2FF00BF80BD80B483B031
:100CC40000AF03460A46FB711346BB71FB79022B46
:100CD4001CD0022B25DC002B02D0012B0BD020E0F2
:100CE400134B1B68BA79012101FA02F21146104A2A
:100CF4000B43136016E00F4B1B68BA79012101FA0C
:100D040002F211460B4A0B4313600BE00A4B1B68BB
:100D1400BA79012101FA02F21146074A0B43136022
:100D240000E000BF00BF0C37BD465DF8047B704790
:100D340030380240403802404438024080B483B026
:100D440000AF00237B6005233B600D4BDB687B60B9
:100D54007A684FF6FF0313407B603B681A027B6896
:100D6400134343F0BF6343F400337B60044A7B685E
:100D7400D36000BF0C37BD465DF8047B704700BFED
:100D840000ED00E080B400AF0B4B1B680A4A23F06F
:100D940004031360084B1B68074A23F00203136023
:100DA400054B1B68044A43F00103136000BFBD46B2
:100DB4005DF8047B704700BF10E000E080B400AF32
:100DC4000B4B1B680A4A23F001031360084B0022F3
:100DD4005A60074B00229A60054B1B68044A23F0B3
:100DE4000203136000BFBD465DF8047B704700BF7B
:100DF40010E000E080B500AF074B1B78DBB2002B9E
:100E040001D1FFF7DBFF054B1B68002B02D0034B1E
:100E14001B68984700BF80BD780000207400002044
:100E240080B500AF0248FFF781FA00BF80BD00BF64
:100E34000800002080B500AF0248FFF777FA00BF32
:100E440080BD00BF0C00002080B500AF0A490B48EC
:100E5400FFF784FA0A490B48FFF780FA0A48FFF7BC
:100E6400FBF90A48FFF7F8F90948FFF7B1F909480F
:100E7400FFF7AEF9FEE700BF250E000830000020A2
:100E8400390E000810000020080000200C0000208B
:100E9400000000200400002080B500AFFFF702FF2F
:100EA400FFF770FFFFF76CFE00BF80BD0D4885465D
:100EB400FFF7F2FF0C480D490D4A002302E0D45815
:100EC400C4500433C4188C42F9D30A4A0A4C002390
:100ED40001E013600432A242FBD300F011F8FFF7E3
:100EE400B3FFFEE7000001200000002014000020F2
:100EF4006C0F0008140000207C000020FEE70000B6
:100F040070B50D4D0D4C641BA4100026A64209D1EA
:100F14000B4D0C4C00F018F8641BA4100026A642DC
:100F240005D170BD55F8043B98470136EEE755F8F6
:100F3400043B98470136F2E7640F0008640F000889
:100F4400640F0008680F0008F8B500BFF8BC08BCBF
:100F54009E467047F8B500BFF8BC08BC9E46704773
:040F6400B9010008C7
:040F680095010008E7
:100F6C00000001000101010001000000000100006F
:040F7C00010100006F
:0400000508000EB130
:00000001FF
