:020000040800F2
:100000000000012085110008D5110008D511000855
:10001000D5110008D5110008D51100080000000016
:10002000000000000000000000000000D5110008E2
:10003000D511000800000000D51100082D1000089F
:1000400000000000D5110008D5110008D5110008E6
:10005000D5110008D5110008A1070008C107000844
:10006000E10700080108000821080008D511000870
:10007000D5110008D5110008D5110008D5110008C8
:10008000D5110008D5110008D511000800000000A6
:10009000000000000000000000000000410800080F
:1000A000D5110008D5110008D5110008D511000898
:1000B000D5110008D5110008D5110008D511000888
:1000C000D5110008D5110008D5110008D511000878
:1000D000D5110008D5110008D51100080000000056
:1000E000F5080008D5110008D5110008000000002F
:1000F000000000000000000000000000D511000812
:1001000000000000D5110008D5110008D511000825
:1001100000000000000000000000000000000000DF
:10012000D5110008D5110008D5110008D511000817
:10013000D5110008000000000000000000000000D1
:10014000000000000000000000000000D5110008C1
:10015000D5110008D5110008D5110008D5110008E7
:10016000D5110008D51100080000000000000000B3
:10017000000000000000000000000000000000007F
:10018000000000000000000000000000000000006F
:04019000D51100087D
:1001940010B5054C237833B9044B13B10448AFF3BD
:1001A40000800123237010BD100000200000000017
:1001B4002012000808B5034B1BB103490348AFF3F1
:1001C400008008BD00000000140000202012000878
:1001D40080B584B000AF786039600023FB737B681E
:1001E4009B78BB737B685B787B737B681B783B7302
:1001F40007F10C031A49184600F094F97B681B7840
:10020400022B10D0022B13DC002B02D0012B05D0C3
:100214000EE00021002000F035FE0AE0012100205C
:1002240000F030FE05E00221002000F02BFE00E08B
:1002340000BF7B6818787B685B780022194600F061
:10024400C3FB7B6818787B685B780022194600F052
:1002540021FD044A3B68136000BF1037BD4680BDD2
:10026400850200082C00002080B400AF034B1B68FB
:100274001846BD465DF8047B704700BF300000207F
:1002840080B582B000AF00237B60424B1B78002B0B
:1002940007D1404B01221A7043F6982000F0B2FEB9
:1002A40073E03C4B1B78012B12D100F087FE786081
:1002B4007B6843F2C722934207D97B6843F69822AE
:1002C400934202D8334B02221A7000F08FFE5CE096
:1002D400304B1B78022B43D100F070FE78607B68B2
:1002E400B3F57A7F12D37B6840F2DC5293420DD887
:1002F400294B93F900301A4601239340DB431A46F5
:10030400264B1B681340254A136014E07B68B3F541
:10031400FA6F10D37B6840F6C41293420BD81E4B7D
:1003240093F900301A46012393401A461B4B1B686D
:1003340013431A4A1360184B93F90030DBB2013BA4
:10034400DBB25AB2144B1A70134B93F90030B3F169
:10035400FF3F02D10F4B05221A7000F047FE14E054
:100364000C4B1B78052B10D10B4B1F221A70094B19
:1003740000221A700A4B1B68002B03D0084B1B6821
:10038400984702E0074B01221A7000BF0837BD46A8
:1003940080BD00BF35000020030000203000002095
:1003A4002C0000203400002080B582B000AF03464A
:1003B4000A46FB711346BB71FB79022B10D0022B4A
:1003C40013DC002B02D0012B05D00EE0002100200D
:1003D40000F058FD0AE00121002000F053FD05E083
:1003E4000221002000F04EFD00E000BFB979FB7946
:1003F4000122184600F0E8FAB979FB790022184680
:1004040000F03CFBB979FB790022184600F088FB28
:10041400B979FB790122184600F0DCFB00BF0837EC
:10042400BD4680BD80B582B000AF78607B685A78E5
:100434007B681B7819461046FFF7B6FF7B681A796C
:100444007B68DB7819461046FFF7AEFF7B68DA79E4
:100454007B689B7919461046FFF7A6FF00BF083753
:10046400BD4680BD80B582B000AF78600B46FB709E
:100474007B6858787B681978FB789B08DBB203F0BB
:100484000103002B0CBF01230023DBB21A4600F04A
:10049400A1FBFB789B08DBB203F00103002B0CBF2C
:1004A40001230023DBB21A467B689A707B681879B3
:1004B4007B68D978FB785B08DBB203F00103002B7F
:1004C4000CBF01230023DBB21A4600F083FBFB7848
:1004D4005B08DBB203F00103002B0CBF01230023F4
:1004E400DBB21A467B685A717B68D8797B68997944
:1004F400FB7803F00103002B0CBF01230023DBB2C4
:100504001A4600F067FBFB7803F00103002B0CBFD5
:1005140001230023DBB21A467B681A7200BF083736
:10052400BD4680BD80B582B000AF786039607B681D
:10053400DB78002B02D0012B0CD017E07A4B1B6820
:100544007A685278114601228A401146764A0B4352
:1005540013600BE0744B5B687A6852781146012291
:100564008A401146704A0B43536000BF7B685B7836
:1005740019466E4A3B6842F821307B689B78022B0F
:1005840036D0022B4BDC002B02D0012B18D046E0D6
:10059400654B9B687A685278114601228A4011465D
:1005A400614A0B439360604BDB687A68527811466A
:1005B40001228A40D24311465B4A0B40D3602FE0AC
:1005C400594BDB687A685278114601228A401146F9
:1005D400554A0B43D360544B9B687A685278114652
:1005E40001228A40D24311464F4A0B40936017E0E0
:1005F4004D4B9B687A685278114601228A40114615
:10060400494A0B439360484BDB687A685278114639
:1006140001228A401146444A0B43D36000E000BFE4
:100624000E21022000F02EFC7B685B78032B0ED891
:100634003F4B1B687A68127811467A6852789200A8
:1006440001FA02F211463A4A0B43136043E07B6815
:100654005B78072B12D87B685B78032B0ED9354B5C
:100664001B687A68127811467A685278920001FA07
:1006740002F211462F4A0B4313602CE07B685B782F
:100684000B2B12D87B685B78072B0ED92A4B1B687F
:100694007A68127811467A685278920001FA02F266
:1006A4001146254A0B43136015E07B685B780F2BDA
:1006B40011D87B685B780B2B0DD9204B1B687A68AB
:1006C400127811467A685278920001FA02F21146C1
:1006D4001A4A0B4313607B685B78042B08D87B6849
:1006E4005B780633DBB25BB2184600F033FB16E0EE
:1006F4007B685B78042B07D97B685B78092B03D86C
:10070400172000F027FB0AE07B685B78092B06D9E9
:100714007B685B780F2B02D8282000F01BFB00BFFE
:100724000837BD4680BD00BF003C014038000020B2
:10073400083801400C380140103801401438014099
:1007440080B483B000AF0346FB71084B5B69FA7950
:10075400012101FA02F21146044A0B43536100BF1E
:100764000C37BD465DF8047B704700BF003C014078
:1007740080B483B000AF0346FB71074B5A69FB7921
:1007840022FA03F3DBB203F00103DBB218460C37A1
:10079400BD465DF8047B7047003C014080B500AF66
:1007A400054B1B68002B02D0034B1B6898470020A5
:1007B400FFF7C6FF00BF80BD3800002080B500AF42
:1007C400054B5B68002B02D0034B5B689847012004
:1007D400FFF7B6FF00BF80BD3800002080B500AF32
:1007E400054B9B68002B02D0034B9B689847022063
:1007F400FFF7A6FF00BF80BD3800002080B500AF22
:10080400054BDB68002B02D0034BDB6898470320C1
:10081400FFF796FF00BF80BD3800002080B500AF11
:10082400054B1B69002B02D0034B1B69984704201E
:10083400FFF786FF00BF80BD3800002080B500AF01
:100844000520FFF795FF0346002B0AD0274B5B6971
:10085400002B02D0254B5B6998470520FFF770FFFA
:1008640042E00620FFF784FF0346002B0AD01F4B0B
:100874009B69002B02D01D4B9B6998470620FFF70C
:100884005FFF31E00720FFF773FF0346002B0AD018
:10089400164BDB69002B02D0144BDB699847072009
:1008A400FFF74EFF20E00820FFF762FF0346002B0E
:1008B4000AD00E4B1B6A002B02D00C4B1B6A9847C4
:1008C4000820FFF73DFF0FE00920FFF751FF034623
:1008D400002B09D0054B5B6A002B02D0034B5B6AEB
:1008E40098470920FFF72CFF00BF80BD3800002087
:1008F40080B500AF0A20FFF73BFF0346002B0AD068
:10090400304B9B6A002B02D02E4B9B6A98470A20DF
:10091400FFF716FF53E00B20FFF72AFF0346002BD7
:100924000AD0284BDB6A002B02D0264BDB6A98479F
:100934000B20FFF705FF42E00C20FFF719FF0346E9
:10094400002B0AD01F4B1B6B002B02D01D4B1B6BC3
:1009540098470C20FFF7F4FE31E00D20FFF708FF65
:100964000346002B0AD0174B5B6B002B02D0154BB0
:100974005B6B98470D20FFF7E3FE20E00E20FFF7A6
:10098400F7FE0346002B0AD00E4B9B6B002B02D0C4
:100994000C4B9B6B98470E20FFF7D2FE0FE00F2005
:1009A400FFF7E6FE0346002B09D0064BDB6B002B5A
:1009B40002D0044BDB6B98470F20FFF7C1FE00BF4A
:1009C40080BD00BF3800002080B483B000AF034670
:1009D400FB710B46BB7113467B71FB79022B2CD048
:1009E400022B3DDC002B02D0012B13D038E0204B2E
:1009F4001B68BA795200032101FA02F2D243134070
:100A04007979BA79520001FA02F21146184A0B4375
:100A1400136026E0174B1B68BA795200032101FAD0
:100A240002F2D24313407979BA79520001FA02F200
:100A34001146104A0B43136013E00F4B1B68BA793D
:100A44005200032101FA02F2D24313407979BA79B0
:100A5400520001FA02F21146074A0B43136000E008
:100A640000BF00BF0C37BD465DF8047B704700BF74
:100A740000000240000402400008024080B483B039
:100A840000AF0346FB710B46BB7113467B71FB79C8
:100A9400022B28D0022B37DC002B02D0012B11D0E3
:100AA40032E01D4B1B68BA79012101FA02F2D243EC
:100AB40013407979BA7901FA02F21146164A0B43C6
:100AC400136022E0144B1B68BA79012101FA02F287
:100AD400D24313407979BA7901FA02F211460E4AE7
:100AE4000B43136011E00D4B1B68BA79012101FA25
:100AF40002F2D24313407979BA7901FA02F211462B
:100B0400064A0B43136000E000BF00BF0C37BD462C
:100B14005DF8047B704700BF0404024004080240EF
:100B240080B483B000AF0346FB710B46BB71134620
:100B34007B71FB79022B2CD0022B3DDC002B02D0E5
:100B4400012B13D038E0204B1B68BA7952000321E3
:100B540001FA02F2D24313407979BA79520001FAC8
:100B640002F21146184A0B43136026E0174B1B6828
:100B7400BA795200032101FA02F2D243134079797F
:100B8400BA79520001FA02F21146104A0B4313607B
:100B940013E00F4B1B68BA795200032101FA02F2E9
:100BA400D24313407979BA79520001FA02F211461C
:100BB400074A0B43136000E000BF00BF0C37BD467B
:100BC4005DF8047B704700BF08000240080402403F
:100BD4000808024080B483B000AF0346FB710B46A3
:100BE400BB7113467B71FB79022B2CD0022B3DDCAD
:100BF400002B02D0012B13D038E07B79012B05D1D7
:100C0400BB7901229A40204B1A6031E07B79002B9A
:100C14002ED1BB794FF480329A401B4B1A6027E0E7
:100C24007B79012B05D1BB7901229A40174B1A60BD
:100C340020E07B79002B1DD1BB794FF480329A40A0
:100C4400124B1A6016E07B79012B05D1BB79012286
:100C54009A400F4B1A600FE07B79002B0CD1BB79C3
:100C64004FF480329A400A4B1A6005E000BF04E05A
:100C740000BF02E000BF00E000BF00BF0C37BD466C
:100C84005DF8047B704700BF18000240180402405E
:100C94001808024080B483B000AF0346FB710B46D2
:100CA400BB7113467B71FB79022B2CD0022B3DDCEC
:100CB400002B02D0012B13D038E0204B1B68BA79EB
:100CC4005200032101FA02F2D24313407979BA792E
:100CD400520001FA02F21146184A0B43136026E04F
:100CE400174B1B68BA795200032101FA02F2D2436E
:100CF40013407979BA79520001FA02F21146104A86
:100D04000B43136013E00F4B1B68BA7952000321A5
:100D140001FA02F2D24313407979BA79520001FA06
:100D240002F21146074A0B43136000E000BF00BF04
:100D34000C37BD465DF8047B704700BF0C000240D1
:100D44000C0402400C08024080B500AF00F0DAF851
:100D540000BF80BD80B483B000AF0346FB7197F938
:100D64000730002B0BDBFB7903F01F02074997F9CF
:100D740007305B09012000FA02F241F8232000BF8A
:100D84000C37BD465DF8047B704700BF00E100E00E
:100D940080B400AF144B1B68134A43F00103136083
:100DA400114B1B68104A23F4803313600E4B1B68ED
:100DB4000D4A23F08073136000BF0B4B1B6803F0D4
:100DC4000203002BF9D0094B1B68084A23F00103E6
:100DD4001360064B1B68054A23F00203136000BF2F
:100DE400BD465DF8047B7047003802400838024075
:100DF40080B400AF084B1B68074A23F0F00313606C
:100E0400054B1B68044A43F08003136000BFBD46D2
:100E14005DF8047B704700BF0838024080B400AF1F
:100E2400074B1B68064A23F4E0531360044B044A3F
:100E34001B68136000BFBD465DF8047B704700BFAC
:100E44000838024080B400AF074B1B68064A23F4FD
:100E540060431360044B044A1B68136000BFBD4623
:100E64005DF8047B704700BF0838024080B500AFCE
:100E7400FFF78EFFFFF7BCFFFFF7D0FFFFF7E2FF9E
:100E840000BF80BD80B483B000AF03460A46FB7147
:100E94001346BB71FB79022B1CD0022B25DC002BE3
:100EA40002D0012B0BD020E0134B1B68BA7901212F
:100EB40001FA02F21146104A0B43136016E00F4B7D
:100EC4001B68BA79012101FA02F211460B4A0B435D
:100ED40013600BE00A4B1B68BA79012101FA02F294
:100EE4001146074A0B43136000E000BF00BF0C37F4
:100EF400BD465DF8047B70473038024040380240FC
:100F04004438024080B483B000AF00237B600523E3
:100F14003B600D4BDB687B607A684FF6FF03134040
:100F24007B603B681A027B68134343F0BF6343F45E
:100F340000337B60044A7B68D36000BF0C37BD4636
:100F44005DF8047B704700BF00ED00E080B400AFA3
:100F54000B4B1B680A4A23F004031360084B1B68FD
:100F6400074A23F002031360054B1B68044A43F04D
:100F74000103136000BFBD465DF8047B704700BFEA
:100F840010E000E080B400AF0B4B1B680A4A23F06A
:100F940001031360084B00225A60074B00229A6039
:100FA400054B1B68044A23F00203136000BFBD46CF
:100FB4005DF8047B704700BF10E000E080B483B0AC
:100FC40000AF00237B6000233B60074B5A68064B4D
:100FD4009B68D31A7B607B683B603B6818460C3780
:100FE400BD465DF8047B704710E000E080B400AFBC
:100FF400034B00229A6000BFBD465DF8047B704736
:1010040010E000E080B483B000AF7860054A7B68EC
:101014005360044B00229A6000BF0C37BD465DF854
:10102400047B704710E000E080B500AF074B1B78ED
:10103400DBB2002B01D1FFF7A5FF054B1B68002B8A
:1010440002D0034B1B68984700BF80BD7C00002082
:101054007800002080B588B000AFFFF705F903469B
:10106400374A934267D104213648FFF7FBF9364BE0
:10107400FB6102E0FB69013BFB61FB69002BF9D1D9
:1010840002213048FFF7EEF92F4BBB6102E0BB6948
:10109400013BBB61BB69002BF9D101212948FFF752
:1010A400E1F9294B7B6102E07B69013B7B617B6950
:1010B400002BF9D106212348FFF7D4F9224B3B61D9
:1010C40002E03B69013B3B613B69002BF9D10521FF
:1010D4001C48FFF7C7F91C4BFB6002E0FB68013BAF
:1010E400FB60FB68002BF9D103211648FFF7BAF91E
:1010F400154BBB6002E0BB68013BBB60BB68002BC7
:10110400F9D107210F48FFF7ADF90F4B7B6002E0DF
:101114007B68013B7B607B68002BF9D10021094887
:10112400FFF7A0F9084B3B6002E03B68013B3B60E2
:101134003B68002BF9D100BF2037BD4680BD00BFFE
:101144009F60D92204000020801A060080B500AFF9
:101154000348FFF767F903490348FFF739F8FEE747
:1011640004000020591000080000002080B500AFE2
:10117400FFF77CFEFFF7EAFEFFF7E6FD00BF80BD48
:101184000D488546FFF7F2FF0C480D490D4A002330
:1011940002E0D458C4500433C4188C42F9D30A4A28
:1011A4000A4C002301E013600432A242FBD300F096
:1011B40011F8FFF7CBFFFEE700000120000000203C
:1011C40010000020401200081000002080000020C1
:1011D400FEE7000070B50D4D0D4C641BA4100026F5
:1011E400A64209D10B4D0C4C00F018F8641BA41056
:1011F4000026A64205D170BD55F8043B9847013638
:10120400EEE755F8043B98470136F2E73812000838
:1012140038120008381200083C120008F8B500BF64
:10122400F8BC08BC9E467047F8B500BFF8BC08BCC3
:041234009E4670471B
:04123800B9010008F0
:04123C009501000810
:101240000000011F00010101010103010100000074
:040000050800118559
:00000001FF
