:020000040800F2
:1000000000000120F5190008451A0008451A0008EB
:10001000451A0008451A0008451A000800000000AB
:10002000000000000000000000000000451A000869
:10003000451A000800000000451A0008451900088C
:1000400000000000451A0008451A0008451A00087B
:10005000451A0008451A0008B9100008D910000810
:10006000F91000081911000839110008451A000894
:10007000451A0008451A0008451A0008451A0008E4
:10008000451A0008451A0008451A0008000000003B
:1000900000000000000000000000000059110008EE
:1000A000451A0008451A0008451A0008451A0008B4
:1000B000451A0008451A0008451A0008451A0008A4
:1000C000451A0008451A0008451A0008451A000894
:1000D000451A0008451A0008451A000800000000EB
:1000E0000D120008451A0008451A0008000000001B
:1000F000000000000000000000000000451A000899
:1001000000000000451A0008451A0008451A0008BA
:1001100000000000000000000000000000000000DF
:10012000451A0008451A0008451A0008451A000833
:10013000451A000800000000000000000000000058
:10014000000000000000000000000000451A000848
:10015000451A0008451A0008451A0008451A000803
:10016000451A0008451A00080000000000000000C1
:10017000000000000000000000000000000000007F
:10018000000000000000000000000000000000006F
:04019000451A000804
:1001940010B5054C237833B9044B13B10448AFF3BD
:1001A40000800123237010BD4400002000000000E3
:1001B400901A000808B5034B1BB103490348AFF379
:1001C400008008BD0000000048000020901A0008CC
:1001D40070B54FF0FF0C4CF4E06C1CEA11541DBFD9
:1001E4001CEA135594EA0C0F95EA0C0F00F0DEF8A4
:1001F4002C4481EA030621EA4C5123EA4C5350EA89
:10020400013518BF52EA033541F4801143F48013D9
:1002140038D0A0FB02CE4FF00005E1FB02E506F06A
:100224000042E0FB03E54FF00006E1FB03569CF0BF
:10023400000F18BF4EF0010EA4F1FF04B6F5007FC5
:1002440064F5407404D25FEA4E0E6D4146EB060637
:1002540042EAC62141EA55514FEAC52040EA5E50C0
:100264004FEACE2EB4F1FD0C88BFBCF5E06F1ED86A
:10027400BEF1004F08BF5FEA500E50F1000041EBA1
:10028400045170BD06F0004646EA010140EA02004E
:1002940081EA0301B4EB5C04C2BFD4EB0C0541EA70
:1002A400045170BD41F480114FF0000E013C00F385
:1002B400AB8014F1360FDEBF002001F0004170BDA9
:1002C400C4F10004203C35DA0C341BDC04F11404C2
:1002D400C4F1200500FA05F320FA04F001FA05F24E
:1002E40040EA020001F0004221F0004110EBD3701B
:1002F40021FA04F642EB06015EEA430E08BF20EA47
:10030400D37070BDC4F10C04C4F1200500FA04F3E9
:1003140020FA05F001FA04F240EA020001F000417B
:1003240010EBD37041F100015EEA430E08BF20EAEE
:10033400D37070BDC4F1200500FA05F24EEA020E36
:1003440020FA04F301FA05F243EA020321FA04F065
:1003540001F0004121FA04F220EA020000EBD3701C
:100364005EEA430E08BF20EAD37070BD94F0000F1C
:100374000FD101F00046400041EB010111F4801F50
:1003840008BF013CF7D041EA060195F0000F18BF01
:10039400704703F00046520043EB030313F4801F3D
:1003A40008BF013DF7D043EA0603704794EA0C0FF7
:1003B4000CEA135518BF95EA0C0F0CD050EA41060D
:1003C40018BF52EA4306D1D181EA030101F000418A
:1003D4004FF0000070BD50EA410606BF10461946B2
:1003E40052EA430619D094EA0C0F02D150EA0136BE
:1003F40013D195EA0C0F05D152EA03361CBF1046FF
:1004040019460AD181EA030101F0004141F0FE419D
:1004140041F470014FF0000070BD41F0FE4141F421
:10042400780170BD81F0004102E000BF83F0004319
:1004340030B54FEA41044FEA430594EA050F08BF7B
:1004440090EA020F1FBF54EA000C55EA020C7FEA3F
:10045400645C7FEA655C00F0E2804FEA5454D4EBBC
:100464005555B8BF6D420CDD2C4480EA020281EA86
:10047400030382EA000083EA010180EA020281EABE
:100484000303362D88BF30BD11F0004F4FEA013110
:100494004FF4801C4CEA113102D0404261EB41011F
:1004A40013F0004F4FEA03334CEA133302D05242A5
:1004B40063EB430394EA050F00F0A780A4F1010461
:1004C400D5F1200E0DDB02FA0EFC22FA05F280189B
:1004D40041F1000103FA0EF2801843FA05F3594181
:1004E4000EE0A5F120050EF1200E012A03FA0EFC00
:1004F40028BF4CF0020C43FA05F3C01851EBE3712A
:1005040001F0004507D54FF0000EDCF1000C7EEB46
:1005140000006EEB0101B1F5801F1BD3B1F5001F84
:100524000CD349085FEA30004FEA3C0C04F10104A3
:100534004FEA445212F5800F80F09A80BCF1004FCC
:1005440008BF5FEA500C50F1000041EB045141EA4E
:10055400050130BD5FEA4C0C404141EB0101013C17
:1005640028BFB1F5801FE9D291F0000F04BF014606
:100574000020B1FA81F308BF2033A3F10B03B3F1D8
:1005840020020CDA0C3208DD02F1140CC2F10C0268
:1005940001FA0CF021FA02F10CE002F11402D8BFC6
:1005A400C2F1200C01FA02F120FA0CFCDCBF41EA92
:1005B4000C019040E41AA2BF01EB0451294330BD61
:1005C4006FEA04041F3C1CDA0C340EDC04F114043E
:1005D400C4F1200220FA04F001FA02F340EA030015
:1005E40021FA04F345EA030130BDC4F10C04C4F15B
:1005F400200220FA02F001FA04F340EA030029463B
:1006040030BD21FA04F0294630BD94F0000F83F484
:10061400801306BF81F480110134013D4EE77FEA67
:10062400645C18BF7FEA655C29D094EA050F08BFB3
:1006340090EA020F05D054EA000C04BF1946104694
:1006440030BD91EA030F1EBF0021002030BD5FEAD8
:10065400545C05D14000494128BF41F0004130BD00
:1006640014F580043CBF01F5801130BD01F0004554
:1006740045F0FE4141F470014FF0000030BD7FEAC7
:10068400645C1ABF194610467FEA655C1CBF0B46C2
:10069400024650EA013406BF52EA033591EA030FD9
:1006A40041F4002130BD00BF90F0000F04BF0021D1
:1006B400704730B54FF4806404F132044FF0000504
:1006C4004FF0000150E700BF90F0000F04BF00217D
:1006D400704730B54FF4806404F1320410F00045E3
:1006E40048BF40424FF000013EE700BF42004FEADE
:1006F400E2014FEA31014FEA02701FBF12F07F435B
:1007040093F07F4F81F06051704732F07F4208BF11
:10071400704793F07F4F04BF41F40021704730B518
:100724004FF4607401F0004521F000411CE700BF64
:1007340050EA010208BF704730B54FF000050AE0E7
:1007440050EA010208BF704730B511F0004502D5E8
:10075400404261EB41014FF4806404F132045FEAEA
:10076400915C3FF4D8AE4FF003025FEADC0C18BF93
:1007740003325FEADC0C18BF033202EBDC02C2F185
:10078400200300FA03FC20FA02F001FA03FE40EA17
:100794000E0021FA02F11444BDE600BF4A0011D252
:1007A40012F5001211D20DD56FF47873B3EB6252C7
:1007B4000ED44FEAC12343F0004343EA505323FAD3
:1007C40002F070474FF00000704750EA013002D148
:1007D4004FF0FF3070474FF00000704780B584B091
:1007E40000AF786039600023FB737B689B78BB7330
:1007F4007B685B787B737B681B783B7307F10C0326
:100804001A49184600F01AFB7B681B78022B10D09B
:10081400022B13DC002B02D0012B05D00EE00021AB
:10082400002000F0BBFF0AE00121002000F0B6FF29
:1008340005E00221002000F0B1FF00E000BF7B686A
:1008440018787B685B780022194600F049FD7B68C4
:1008540018787B685B780022194600F0A7FE044AEA
:100864003B68136000BF1037BD4680BD9108000887
:100874006000002080B400AF034B1B681846BD46DF
:100884005DF8047B704700BF6400002080B582B02F
:1008940000AF00237B60424B1B78002B07D1404BF9
:1008A40001221A7043F6982001F038F873E03C4BAB
:1008B4001B78012B12D101F00DF878607B6843F2AC
:1008C400C722934207D97B6843F69822934202D801
:1008D400334B02221A7001F015F85CE0304B1B78A0
:1008E400022B43D100F0F6FF78607B68B3F57A7F82
:1008F40012D37B6840F2DC5293420DD8294B93F912
:1009040000301A4601239340DB431A46264B1B68EA
:100914001340254A136014E07B68B3F5FA6F10D3D3
:100924007B6840F6C41293420BD81E4B93F90030F7
:100934001A46012393401A461B4B1B6813431A4A59
:100944001360184B93F90030DBB2013BDBB25AB2AF
:10095400144B1A70134B93F90030B3F1FF3F02D1DB
:100964000F4B05221A7000F0CDFF14E00C4B1B78DE
:10097400052B10D10B4B1F221A70094B00221A7041
:100984000A4B1B68002B03D0084B1B68984702E0F6
:10099400074B01221A7000BF0837BD4680BD00BF57
:1009A4006900002003000020640000206000002093
:1009B4006800002080B582B000AF78607B685B7807
:1009C400022B10D0022B13DC002B02D0012B05D0FC
:1009D4000EE00021002000F0E1FE0AE001210020E9
:1009E40000F0DCFE05E00221002000F0D7FE00E06C
:1009F40000BF7B6858787B681B780122194600F099
:100A04006FFC7B6858787B681B780022194600F0DD
:100A1400C1FC7B6858787B681B780022194600F07B
:100A24000BFD7B6858787B6819787B689B781A463D
:100A340000F05CFD00BF0837BD4680BD80B582B0C4
:100A440000AF78607B6858787B681B780122194670
:100A540000F04CFD7B6801229A7000BF0837BD4648
:100A640080BD80B582B000AF78607B6858787B68C1
:100A74001B780022194600F039FD7B6800229A7029
:100A840000BF0837BD4680BD80B582B000AF0023EB
:100A9400FB710023FB7109E0FB79084A52F823300B
:100AA4001846FFF787FFFB790133FB71FB79072BAE
:100AB400F2D900BF00BF0837BD4680BD2400002026
:100AC40080B582B000AF0023FB710023BB7100230B
:100AD400FB712AE00023BB7109E0BB79174A52F885
:100AE40023301846FFF7AAFFBB790133BB71BB79EA
:100AF400072BF2D94FF4C87000F038FF0023BB7104
:100B040009E0BB790D4A52F823301846FFF7A9FFD4
:100B1400BB790133BB71BB79072BF2D94FF4C87091
:100B240000F024FFFB790133FB71FB79032BD1D94E
:100B340000BF00BF0837BD4680BD00BF24000020B1
:100B440080B582B000AF0023FB710023BB7100238A
:100B5400FB712CE00023BB7116E0BB79224A52F8EA
:100B640023301846FFF76AFFC82000F0FFFEBB7968
:100B74001D4A52F823301846FFF773FF322000F065
:100B8400F5FEBB790133BB71BA79FB79C3F1070375
:100B94009A42E2DBBB79144A52F823301846FFF735
:100BA4004DFFC82000F0E2FEFB790133FB71FB79B5
:100BB400072BCFD94FF42F7000F0D8FE0023FB7120
:100BC40009E0FB79084A52F823301846FFF749FF39
:100BD400FB790133FB71FB79072BF2D900BF00BF0E
:100BE4000837BD4680BD00BF2400002080B582B018
:100BF40000AF0023FB710023FB7120E097F907305D
:100C0400264A52F823301846FFF718FF4FF496701F
:100C140000F0ACFE97F90730072B07D097F907309F
:100C24001E4A52F823301846FFF71BFF322000F00B
:100C34009DFE97F90730DBB20133DBB2FB7197F904
:100C44000730072BDADD0723FB711CE097F9073027
:100C5400124A52F823301846FFF7F0FE4FF496700C
:100C640000F084FE97F907300C4A52F823301846F6
:100C7400FFF7F7FE322000F079FE97F90730DBB278
:100C8400013BDBB2FB7197F90730002BDEDAC82099
:100C940000F06CFE00BF0837BD4680BD2400002074
:100CA40080B582B000AF0023FB710423BB71032322
:100CB400FB711FE097F907301D4A52F8233018469C
:100CC400FFF7BCFE97F90630194A52F8233018464C
:100CD400FFF7B4FE4FF47A7000F048FE97F906303F
:100CE400DBB20133DBB2BB7197F90730DBB2013BF6
:100CF400DBB2FB7197F90730002BDBDA0023FB71C1
:100D04000DE097F907300A4A52F823301846FFF7E6
:100D1400A8FE97F90730DBB20133DBB2FB7197F918
:100D24000730072BEDDD00BF00BF0837BD4680BD8F
:100D34002400002080B582B000AF0023FB710023A3
:100D4400BB710723FB7117E0FB79174A52F8233074
:100D54001846FFF773FEBB79134A52F8233018463E
:100D6400FFF76CFE4FF47A7000F000FEBB7901339C
:100D7400BB71FB79013BFB71FB79022BE4D80023A7
:100D8400FB7109E0FB79084A52F823301846FFF753
:100D940068FEFB790133FB71FB79072BF2D900BFA5
:100DA40000BF0837BD4680BD2400002080B500AFD9
:100DB400FFF760FD0346154A934202D1FFF780FE18
:100DC40022E0FFF757FD0346114A934202D1FFF791
:100DD400B7FE19E0FFF74EFD03460E4A934202D1D7
:100DE400FFF704FF10E0FFF745FD03460A4A93426C
:100DF40002D1FFF755FF07E0FFF73CFD0346074A22
:100E0400934201D1FFF796FF00BF80BD27D8D922B6
:100E14000FF0D9223FC0D9226798D9227788D922E6
:100E240080B500AFFFF730FE02490348FFF7D6FC58
:100E3400FEE700BFB10D00080000002080B582B0BD
:100E440000AF786039607B68DB78002B02D0012B1F
:100E54000CD017E07A4B1B687A685278114601224D
:100E64008A401146764A0B4313600BE0744B5B686F
:100E74007A685278114601228A401146704A0B431F
:100E8400536000BF7B685B7819466E4A3B6842F842
:100E940021307B689B78022B36D0022B4BDC002B55
:100EA40002D0012B18D046E0654B9B687A685278D3
:100EB400114601228A401146614A0B439360604BFC
:100EC400DB687A685278114601228A40D24311467F
:100ED4005B4A0B40D3602FE0594BDB687A68527849
:100EE400114601228A401146554A0B43D360544BA4
:100EF4009B687A685278114601228A40D24311468F
:100F04004F4A0B40936017E04D4B9B687A685278C8
:100F1400114601228A401146494A0B439360484BCB
:100F2400DB687A685278114601228A401146444AA5
:100F34000B43D36000E000BF0E21022000F02EFC22
:100F44007B685B78032B0ED83F4B1B687A6812785A
:100F540011467A685278920001FA02F211463A4A2E
:100F64000B43136043E07B685B78072B12D87B68E4
:100F74005B78032B0ED9354B1B687A6812781146BF
:100F84007A685278920001FA02F211462F4A0B4312
:100F940013602CE07B685B780B2B12D87B685B7842
:100FA400072B0ED92A4B1B687A68127811467A6887
:100FB4005278920001FA02F21146254A0B4313605B
:100FC40015E07B685B780F2B11D87B685B780B2B63
:100FD4000DD9204B1B687A68127811467A685278CA
:100FE400920001FA02F211461A4A0B4313607B681D
:100FF4005B78042B08D87B685B780633DBB25BB282
:10100400184600F033FB16E07B685B78042B07D9A5
:101014007B685B78092B03D8172000F027FB0AE0D4
:101024007B685B78092B06D97B685B780F2B02D829
:10103400282000F01BFB00BF0837BD4680BD00BF61
:10104400003C01406C000020083801400C3801408D
:10105400103801401438014080B483B000AF034617
:10106400FB71084B5B69FA79012101FA02F211461E
:10107400044A0B43536100BF0C37BD465DF8047B43
:10108400704700BF003C014080B483B000AF03460A
:10109400FB71074B5A69FB7922FA03F3DBB203F0C5
:1010A4000103DBB218460C37BD465DF8047B70477C
:1010B400003C014080B500AF054B1B68002B02D0FB
:1010C400034B1B6898470020FFF7C6FF00BF80BD95
:1010D4006C00002080B500AF054B5B68002B02D08C
:1010E400034B5B6898470120FFF7B6FF00BF80BD44
:1010F4006C00002080B500AF054B9B68002B02D02C
:10110400034B9B6898470220FFF7A6FF00BF80BDF2
:101114006C00002080B500AF054BDB68002B02D0CB
:10112400034BDB6898470320FFF796FF00BF80BDA1
:101134006C00002080B500AF054B1B69002B02D06A
:10114400034B1B6998470420FFF786FF00BF80BD4F
:101154006C00002080B500AF0520FFF795FF034623
:10116400002B0AD0274B5B69002B02D0254B5B690F
:1011740098470520FFF770FF42E00620FFF784FF41
:101184000346002B0AD01F4B9B69002B02D01D4B3A
:101194009B6998470620FFF75FFF31E00720FFF7C0
:1011A40073FF0346002B0AD0164BDB69002B02D0D9
:1011B400144BDB6998470720FFF74EFF20E0082017
:1011C400FFF762FF0346002B0AD00E4B1B6A002B6D
:1011D40002D00C4B1B6A98470820FFF73DFF0FE035
:1011E4000920FFF751FF0346002B09D0054B5B6A2A
:1011F400002B02D0034B5B6A98470920FFF72CFFB2
:1012040000BF80BD6C00002080B500AF0A20FFF74E
:101214003BFF0346002B0AD0304B9B6A002B02D0C5
:101224002E4B9B6A98470A20FFF716FF53E00B20CA
:10123400FFF72AFF0346002B0AD0284BDB6A002B5A
:1012440002D0264BDB6A98470B20FFF705FF42E0EC
:101254000C20FFF719FF0346002B0AD01F4B1B6B12
:10126400002B02D01D4B1B6B98470C20FFF7F4FE9C
:1012740031E00D20FFF708FF0346002B0AD0174B7F
:101284005B6B002B02D0154B5B6B98470D20FFF76F
:10129400E3FE20E00E20FFF7F7FE0346002B0AD002
:1012A4000E4B9B6B002B02D00C4B9B6B98470E2074
:1012B400FFF7D2FE0FE00F20FFF7E6FE0346002BF8
:1012C40009D0064BDB6B002B02D0044BDB6B984739
:1012D4000F20FFF7C1FE00BF80BD00BF6C000020DF
:1012E40080B483B000AF0346FB710B46BB71134659
:1012F4007B71FB79022B2CD0022B3DDC002B02D01E
:10130400012B13D038E0204B1B68BA79520003211B
:1013140001FA02F2D24313407979BA79520001FA00
:1013240002F21146184A0B43136026E0174B1B6860
:10133400BA795200032101FA02F2D24313407979B7
:10134400BA79520001FA02F21146104A0B431360B3
:1013540013E00F4B1B68BA795200032101FA02F221
:10136400D24313407979BA79520001FA02F2114654
:10137400074A0B43136000E000BF00BF0C37BD46B3
:101384005DF8047B704700BF000002400004024087
:101394000008024080B483B000AF0346FB710B46E3
:1013A400BB7113467B71FB79022B28D0022B37DCEF
:1013B400002B02D0012B11D032E01D4B1B68BA79EF
:1013C400012101FA02F2D24313407979BA7901FA80
:1013D40002F21146164A0B43136022E0144B1B68B9
:1013E400BA79012101FA02F2D24313407979BA7928
:1013F40001FA02F211460E4A0B43136011E00D4B41
:101404001B68BA79012101FA02F2D24313407979B7
:10141400BA7901FA02F21146064A0B43136000E05E
:1014240000BF00BF0C37BD465DF8047B704700BFAA
:10143400040402400408024080B483B000AF0346B1
:10144400FB710B46BB7113467B71FB79022B2CD0CD
:10145400022B3DDC002B02D0012B13D038E0204BB3
:101464001B68BA795200032101FA02F2D2431340F5
:101474007979BA79520001FA02F21146184A0B43FB
:10148400136026E0174B1B68BA795200032101FA56
:1014940002F2D24313407979BA79520001FA02F286
:1014A4001146104A0B43136013E00F4B1B68BA79C3
:1014B4005200032101FA02F2D24313407979BA7936
:1014C400520001FA02F21146074A0B43136000E08E
:1014D40000BF00BF0C37BD465DF8047B704700BFFA
:1014E40008000240080402400808024080B483B0A7
:1014F40000AF0346FB710B46BB7113467B71FB794E
:10150400022B2CD0022B3DDC002B02D0012B13D05C
:1015140038E07B79012B05D1BB7901229A40204B1D
:101524001A6031E07B79002B2ED1BB794FF48032E5
:101534009A401B4B1A6027E07B79012B05D1BB79BC
:1015440001229A40174B1A6020E07B79002B1DD1B1
:10155400BB794FF480329A40124B1A6016E07B79C3
:10156400012B05D1BB7901229A400F4B1A600FE081
:101574007B79002B0CD1BB794FF480329A400A4B13
:101584001A6005E000BF04E000BF02E000BF00E015
:1015940000BF00BF0C37BD465DF8047B704700BF39
:1015A40018000240180402401808024080B483B0B6
:1015B40000AF0346FB710B46BB7113467B71FB798D
:1015C400022B2CD0022B3DDC002B02D0012B13D09C
:1015D40038E0204B1B68BA795200032101FA02F269
:1015E400D24313407979BA79520001FA02F21146D2
:1015F400184A0B43136026E0174B1B68BA79520054
:10160400032101FA02F2D24313407979BA795200E4
:1016140001FA02F21146104A0B43136013E00F4B18
:101624001B68BA795200032101FA02F2D243134033
:101634007979BA79520001FA02F21146074A0B434A
:10164400136000E000BF00BF0C37BD465DF8047BAB
:10165400704700BF0C0002400C0402400C0802401A
:1016640080B500AF00F0DAF800BF80BD80B483B06D
:1016740000AF0346FB7197F90730002B0BDBFB79B6
:1016840003F01F02074997F907305B09012000FAAC
:1016940002F241F8232000BF0C37BD465DF8047BFD
:1016A400704700BF00E100E080B400AF144B1B683A
:1016B400134A43F001031360114B1B68104A23F4CF
:1016C400803313600E4B1B680D4A23F08073136044
:1016D40000BF0B4B1B6803F00203002BF9D0094B2E
:1016E4001B68084A23F001031360064B1B68054A74
:1016F40023F00203136000BFBD465DF8047B70470E
:10170400003802400838024080B400AF084B1B6820
:10171400074A23F0F0031360054B1B68044A43F0A7
:101724008003136000BFBD465DF8047B704700BFB3
:101734000838024080B400AF074B1B68064A23F404
:10174400E0531360044B044A1B68136000BFBD469A
:101754005DF8047B704700BF0838024080B400AFD6
:10176400074B1B68064A23F460431360044B044A86
:101774001B68136000BFBD465DF8047B704700BF63
:101784000838024080B500AFFFF78EFFFFF7BCFFBB
:10179400FFF7D0FFFFF7E2FF00BF80BD80B483B046
:1017A40000AF03460A46FB711346BB71FB79022B5B
:1017B4001CD0022B25DC002B02D0012B0BD020E007
:1017C400134B1B68BA79012101FA02F21146104A3F
:1017D4000B43136016E00F4B1B68BA79012101FA21
:1017E40002F211460B4A0B4313600BE00A4B1B68D1
:1017F400BA79012101FA02F21146074A0B43136038
:1018040000E000BF00BF0C37BD465DF8047B7047A5
:1018140030380240403802404438024080B483B03B
:1018240000AF00237B6005233B600D4BDB687B60CE
:101834007A684FF6FF0313407B603B681A027B68AB
:10184400134343F0BF6343F400337B60044A7B6873
:10185400D36000BF0C37BD465DF8047B704700BF02
:1018640000ED00E080B400AF0B4B1B680A4A23F084
:1018740004031360084B1B68074A23F00203136038
:10188400054B1B68044A43F00103136000BFBD46C7
:101894005DF8047B704700BF10E000E080B400AF47
:1018A4000B4B1B680A4A23F001031360084B002208
:1018B4005A60074B00229A60054B1B68044A23F0C8
:1018C4000203136000BFBD465DF8047B704700BF90
:1018D40010E000E080B483B000AF00237B600023FD
:1018E4003B60074B5A68064B9B68D31A7B607B6846
:1018F4003B603B6818460C37BD465DF8047B704777
:1019040010E000E080B400AF034B00229A6000BFF7
:10191400BD465DF8047B704710E000E080B483B0FE
:1019240000AF7860054A7B685360044B00229A60DC
:1019340000BF0C37BD465DF8047B704710E000E043
:1019440080B500AF074B1B78DBB2002B01D1FFF74A
:10195400A5FF054B1B68002B02D0034B1B6898475F
:1019640000BF80BDB0000020AC00002080B584B072
:1019740000AF78600023FB607868FEF795FE4FF0B7
:101984000002144BFEF724FC02460B46104619468F
:10199400FEF704FF0346FB60FB68B3F1807F02D3CC
:1019A4006FF07F43FB600C4AFB6853600A4B0022D4
:1019B4009A6000BF084B1B6803F48033002BF9D0F6
:1019C400054B00225A60044B00229A6000BF103776
:1019D400BD4680BD00408F4010E000E080B500AF00
:1019E400FFF7D0FEFFF73EFFFFF73AFE00BF80BDD2
:1019F4000D488546FFF7F2FF0C480D490D4A0023B8
:101A040002E0D458C4500433C4188C42F9D30A4AAF
:101A14000A4C002301E013600432A242FBD300F01D
:101A240011F8FFF7FDF9FEE7000001200000002097
:101A340044000020B01A000844000020B400002034
:101A4400FEE7000070B50D4D0D4C641BA41000267C
:101A5400A64209D10B4D0C4C00F018F8641BA410DD
:101A64000026A64205D170BD55F8043B98470136BF
:101A7400EEE755F8043B98470136F2E7A81A000848
:101A8400A81A0008A81A0008AC1A0008F8B500BF84
:101A9400F8BC08BC9E467047F8B500BFF8BC08BC4B
:041AA4009E467047A3
:041AA800B901000878
:041AAC009501000898
:101AB0000000011F040100000100000002000000FE
:101AC0000300000004000000050000000600000004
:101AD0000700000004000020080000200C00002087
:101AE0001000002014000020180000201C0000201E
:041AF00020000020B2
:04000005080019F5E1
:00000001FF
